{
    "_format": "hh-sol-artifact-1",
    "contractName": "TodoList",
    "sourceName": "contracts/TodoList.sol",
    "abi": [
        {
            "inputs": [],
            "stateMutability": "nonpayable",
            "type": "constructor"
        },
        {
            "inputs": [
                {
                    "internalType": "string",
                    "name": "task",
                    "type": "string"
                }
            ],
            "name": "addTask",
            "outputs": [],
            "stateMutability": "nonpayable",
            "type": "function"
        },
        {
            "inputs": [
                {
                    "internalType": "uint256",
                    "name": "id",
                    "type": "uint256"
                }
            ],
            "name": "completeTask",
            "outputs": [],
            "stateMutability": "nonpayable",
            "type": "function"
        },
        {
            "inputs": [],
            "name": "count",
            "outputs": [
                {
                    "internalType": "uint256",
                    "name": "",
                    "type": "uint256"
                }
            ],
            "stateMutability": "view",
            "type": "function"
        },
        {
            "inputs": [],
            "name": "owner",
            "outputs": [
                {
                    "internalType": "address",
                    "name": "",
                    "type": "address"
                }
            ],
            "stateMutability": "view",
            "type": "function"
        },
        {
            "inputs": [
                {
                    "internalType": "uint256",
                    "name": "",
                    "type": "uint256"
                }
            ],
            "name": "tasks",
            "outputs": [
                {
                    "internalType": "string",
                    "name": "task",
                    "type": "string"
                },
                {
                    "internalType": "bool",
                    "name": "isCompleted",
                    "type": "bool"
                }
            ],
            "stateMutability": "view",
            "type": "function"
        }
    ],
    "bytecode": "0x6080604052600060015534801561001557600080fd5b5033600260006101000a81548173ffffffffffffffffffffffffffffffffffffffff021916908373ffffffffffffffffffffffffffffffffffffffff160217905550610b77806100666000396000f3fe608060405234801561001057600080fd5b50600436106100575760003560e01c806306661abd1461005c578063672385621461007a5780638d977672146100965780638da5cb5b146100c7578063e1e29558146100e5575b600080fd5b610064610101565b604051610071919061047e565b60405180910390f35b610094600480360381019061008f9190610508565b610107565b005b6100b060048036038101906100ab9190610581565b610262565b6040516100be929190610659565b60405180910390f35b6100cf61031b565b6040516100dc91906106ca565b60405180910390f35b6100ff60048036038101906100fa9190610581565b610341565b005b60015481565b3373ffffffffffffffffffffffffffffffffffffffff16600260009054906101000a900473ffffffffffffffffffffffffffffffffffffffff1673ffffffffffffffffffffffffffffffffffffffff1614610197576040517f08c379a000000000000000000000000000000000000000000000000000000000815260040161018e90610731565b60405180910390fd5b6000604051806040016040528084848080601f016020809104026020016040519081016040528093929190818152602001838380828437600081840152601f19601f8201169050808301925050505050505081526020016000151581525090508060008060015481526020019081526020016000206000820151816000019081610221919061098c565b5060208201518160010160006101000a81548160ff0219169083151502179055509050506001600081548092919061025890610a8d565b9190505550505050565b6000602052806000526040600020600091509050806000018054610285906107af565b80601f01602080910402602001604051908101604052809291908181526020018280546102b1906107af565b80156102fe5780601f106102d3576101008083540402835291602001916102fe565b820191906000526020600020905b8154815290600101906020018083116102e157829003601f168201915b5050505050908060010160009054906101000a900460ff16905082565b600260009054906101000a900473ffffffffffffffffffffffffffffffffffffffff1681565b3373ffffffffffffffffffffffffffffffffffffffff16600260009054906101000a900473ffffffffffffffffffffffffffffffffffffffff1673ffffffffffffffffffffffffffffffffffffffff16146103d1576040517f08c379a00000000000000000000000000000000000000000000000000000000081526004016103c890610731565b60405180910390fd5b60008082815260200190815260200160002060010160009054906101000a900460ff1615610434576040517f08c379a000000000000000000000000000000000000000000000000000000000815260040161042b90610b21565b60405180910390fd5b600160008083815260200190815260200160002060010160006101000a81548160ff02191690831515021790555050565b6000819050919050565b61047881610465565b82525050565b6000602082019050610493600083018461046f565b92915050565b600080fd5b600080fd5b600080fd5b600080fd5b600080fd5b60008083601f8401126104c8576104c76104a3565b5b8235905067ffffffffffffffff8111156104e5576104e46104a8565b5b602083019150836001820283011115610501576105006104ad565b5b9250929050565b6000806020838503121561051f5761051e610499565b5b600083013567ffffffffffffffff81111561053d5761053c61049e565b5b610549858286016104b2565b92509250509250929050565b61055e81610465565b811461056957600080fd5b50565b60008135905061057b81610555565b92915050565b60006020828403121561059757610596610499565b5b60006105a58482850161056c565b91505092915050565b600081519050919050565b600082825260208201905092915050565b60005b838110156105e85780820151818401526020810190506105cd565b60008484015250505050565b6000601f19601f8301169050919050565b6000610610826105ae565b61061a81856105b9565b935061062a8185602086016105ca565b610633816105f4565b840191505092915050565b60008115159050919050565b6106538161063e565b82525050565b600060408201905081810360008301526106738185610605565b9050610682602083018461064a565b9392505050565b600073ffffffffffffffffffffffffffffffffffffffff82169050919050565b60006106b482610689565b9050919050565b6106c4816106a9565b82525050565b60006020820190506106df60008301846106bb565b92915050565b7f596f752063616e27742063616c6c20746869732066756e6374696f6e00000000600082015250565b600061071b601c836105b9565b9150610726826106e5565b602082019050919050565b6000602082019050818103600083015261074a8161070e565b9050919050565b7f4e487b7100000000000000000000000000000000000000000000000000000000600052604160045260246000fd5b7f4e487b7100000000000000000000000000000000000000000000000000000000600052602260045260246000fd5b600060028204905060018216806107c757607f821691505b6020821081036107da576107d9610780565b5b50919050565b60008190508160005260206000209050919050565b60006020601f8301049050919050565b600082821b905092915050565b6000600883026108427fffffffffffffffffffffffffffffffffffffffffffffffffffffffffffffffff82610805565b61084c8683610805565b95508019841693508086168417925050509392505050565b6000819050919050565b600061088961088461087f84610465565b610864565b610465565b9050919050565b6000819050919050565b6108a38361086e565b6108b76108af82610890565b848454610812565b825550505050565b600090565b6108cc6108bf565b6108d781848461089a565b505050565b5b818110156108fb576108f06000826108c4565b6001810190506108dd565b5050565b601f82111561094057610911816107e0565b61091a846107f5565b81016020851015610929578190505b61093d610935856107f5565b8301826108dc565b50505b505050565b600082821c905092915050565b600061096360001984600802610945565b1980831691505092915050565b600061097c8383610952565b9150826002028217905092915050565b610995826105ae565b67ffffffffffffffff8111156109ae576109ad610751565b5b6109b882546107af565b6109c38282856108ff565b600060209050601f8311600181146109f657600084156109e4578287015190505b6109ee8582610970565b865550610a56565b601f198416610a04866107e0565b60005b82811015610a2c57848901518255600182019150602085019450602081019050610a07565b86831015610a495784890151610a45601f891682610952565b8355505b6001600288020188555050505b505050505050565b7f4e487b7100000000000000000000000000000000000000000000000000000000600052601160045260246000fd5b6000610a9882610465565b91507fffffffffffffffffffffffffffffffffffffffffffffffffffffffffffffffff8203610aca57610ac9610a5e565b5b600182019050919050565b7f5461736b20616c726561647920636f6d706c6574656400000000000000000000600082015250565b6000610b0b6016836105b9565b9150610b1682610ad5565b602082019050919050565b60006020820190508181036000830152610b3a81610afe565b905091905056fea2646970667358221220315fc76702c8542730dc723db71464c73c166afe685d10f6970f49e39873cba064736f6c63430008110033",
    "linkReferences": {},
    "deployedLinkReferences": {}
}